{
  "contractName": "IPFShash",
  "abi": [
    {
      "constant": true,
      "inputs": [],
      "name": "ipfsHash",
      "outputs": [
        {
          "name": "",
          "type": "bytes32"
        }
      ],
      "payable": false,
      "stateMutability": "view",
      "type": "function"
    },
    {
      "anonymous": false,
      "inputs": [
        {
          "indexed": false,
          "name": "_message",
          "type": "string"
        }
      ],
      "name": "HashSet",
      "type": "event"
    },
    {
      "constant": false,
      "inputs": [
        {
          "name": "x",
          "type": "string"
        }
      ],
      "name": "sendHash",
      "outputs": [],
      "payable": false,
      "stateMutability": "nonpayable",
      "type": "function"
    },
    {
      "constant": true,
      "inputs": [],
      "name": "getHash",
      "outputs": [
        {
          "name": "x",
          "type": "bytes32"
        }
      ],
      "payable": false,
      "stateMutability": "view",
      "type": "function"
    }
  ],
  "bytecode": "0x608060405260008054600160a060020a0319163317905534801561002257600080fd5b5061024c806100326000396000f3006080604052600436106100565763ffffffff7c0100000000000000000000000000000000000000000000000000000000600035041663c623674f811461005b578063d13319c414610082578063dfb2993514610097575b600080fd5b34801561006757600080fd5b506100706100f2565b60408051918252519081900360200190f35b34801561008e57600080fd5b506100706100f8565b3480156100a357600080fd5b506040805160206004803580820135601f81018490048402850184019095528484526100f09436949293602493928401919081908401838280828437509497506100fe9650505050505050565b005b60015481565b60015490565b806040516020018082805190602001908083835b602083106101315780518252601f199092019160209182019101610112565b6001836020036101000a0380198251168184511680821785525050505050509050019150506040516020818303038152906040526040518082805190602001908083835b602083106101945780518252601f199092019160209182019101610175565b51815160001960209485036101000a01908116901991909116179052604080519490920184900384206001558084526019908401527f486173682073746f726564207375636365737366756c6c79210000000000000083820152517f4b6dd491b159ced37b2544658dbe93b1ade3bc42918fde7f4597f08da43dbcd5945091829003606001925050a1505600a165627a7a723058201e5c0c94934bcba728476f45dfbe226e7f76f7356dfbd316ed2c52db110f06460029",
  "source": "pragma solidity ^0.4.24;\r\n\r\ncontract IPFShash {\r\n    address owner = msg.sender;\r\n    function kill() private {\r\n        if (msg.sender == owner) selfdestruct(owner);\r\n    }\r\n    \r\n    //defining event for setting of the hash\r\n    event HashSet(\r\n    string _message\r\n    );\r\n    bytes32 public ipfsHash;\r\n \r\n    function sendHash(string x) public {\r\n    \r\n    //using keccack256 (SHA3) to hash the user input data\r\n    //string data must first be must be encode packed in order for keccack operation to be valid\r\n        ipfsHash = keccak256(abi.encodePacked(x));\r\n        \r\n    //logging that a hash has been sent\r\n        emit HashSet(\"Hash stored successfully!\");\r\n    }\r\n    //getter for hashing \r\n    function getHash() public view returns (bytes32 x) {\r\n        return ipfsHash;\r\n    }\r\n}\r\n",
  "sourcePath": "C:\\Users\\aparmenter\\repos\\Consensys\\ERC20bounty\\Fproj\\contracts\\IPFShash.sol",
  "compiler": {
    "name": "solc",
    "version": "0.4.24+commit.e67f0147.Emscripten.clang"
  },
  "schemaVersion": "2.0.1",
  "updatedAt": "2018-08-29T14:50:56.698Z"
}