{
  "contractName": "IPFShash",
  "abi": [
    {
      "constant": false,
      "inputs": [],
      "name": "unpause",
      "outputs": [],
      "payable": false,
      "stateMutability": "nonpayable",
      "type": "function"
    },
    {
      "constant": true,
      "inputs": [],
      "name": "paused",
      "outputs": [
        {
          "name": "",
          "type": "bool"
        }
      ],
      "payable": false,
      "stateMutability": "view",
      "type": "function"
    },
    {
      "constant": false,
      "inputs": [],
      "name": "renounceOwnership",
      "outputs": [],
      "payable": false,
      "stateMutability": "nonpayable",
      "type": "function"
    },
    {
      "constant": false,
      "inputs": [],
      "name": "pause",
      "outputs": [],
      "payable": false,
      "stateMutability": "nonpayable",
      "type": "function"
    },
    {
      "constant": true,
      "inputs": [],
      "name": "owner",
      "outputs": [
        {
          "name": "",
          "type": "address"
        }
      ],
      "payable": false,
      "stateMutability": "view",
      "type": "function"
    },
    {
      "constant": true,
      "inputs": [],
      "name": "ipfsHash",
      "outputs": [
        {
          "name": "",
          "type": "bytes32"
        }
      ],
      "payable": false,
      "stateMutability": "view",
      "type": "function"
    },
    {
      "constant": false,
      "inputs": [
        {
          "name": "_newOwner",
          "type": "address"
        }
      ],
      "name": "transferOwnership",
      "outputs": [],
      "payable": false,
      "stateMutability": "nonpayable",
      "type": "function"
    },
    {
      "anonymous": false,
      "inputs": [
        {
          "indexed": false,
          "name": "_message",
          "type": "string"
        }
      ],
      "name": "HashSet",
      "type": "event"
    },
    {
      "anonymous": false,
      "inputs": [],
      "name": "Pause",
      "type": "event"
    },
    {
      "anonymous": false,
      "inputs": [],
      "name": "Unpause",
      "type": "event"
    },
    {
      "anonymous": false,
      "inputs": [
        {
          "indexed": true,
          "name": "previousOwner",
          "type": "address"
        }
      ],
      "name": "OwnershipRenounced",
      "type": "event"
    },
    {
      "anonymous": false,
      "inputs": [
        {
          "indexed": true,
          "name": "previousOwner",
          "type": "address"
        },
        {
          "indexed": true,
          "name": "newOwner",
          "type": "address"
        }
      ],
      "name": "OwnershipTransferred",
      "type": "event"
    },
    {
      "constant": false,
      "inputs": [
        {
          "name": "x",
          "type": "string"
        }
      ],
      "name": "sendHash",
      "outputs": [],
      "payable": false,
      "stateMutability": "nonpayable",
      "type": "function"
    },
    {
      "constant": true,
      "inputs": [],
      "name": "getHash",
      "outputs": [
        {
          "name": "x",
          "type": "bytes32"
        }
      ],
      "payable": false,
      "stateMutability": "view",
      "type": "function"
    }
  ],
  "bytecode": "0x60806040526000805460018054600160a060020a03191633908117909155600160a860020a03199091161790556106378061003b6000396000f3006080604052600436106100985763ffffffff7c01000000000000000000000000000000000000000000000000000000006000350416633f4ba83a811461009d5780635c975abb146100b4578063715018a6146100dd5780638456cb59146100f25780638da5cb5b14610107578063c623674f14610145578063d13319c41461016c578063dfb2993514610181578063f2fde38b146101da575b600080fd5b3480156100a957600080fd5b506100b2610208565b005b3480156100c057600080fd5b506100c961029c565b604080519115158252519081900360200190f35b3480156100e957600080fd5b506100b26102bd565b3480156100fe57600080fd5b506100b2610343565b34801561011357600080fd5b5061011c6103ed565b6040805173ffffffffffffffffffffffffffffffffffffffff9092168252519081900360200190f35b34801561015157600080fd5b5061015a610409565b60408051918252519081900360200190f35b34801561017857600080fd5b5061015a61040f565b34801561018d57600080fd5b506040805160206004803580820135601f81018490048402850184019095528484526100b29436949293602493928401919081908401838280828437509497506104159650505050505050565b3480156101e657600080fd5b506100b273ffffffffffffffffffffffffffffffffffffffff60043516610537565b60005473ffffffffffffffffffffffffffffffffffffffff16331461022c57600080fd5b60005474010000000000000000000000000000000000000000900460ff16151561025557600080fd5b6000805474ff0000000000000000000000000000000000000000191681556040517f7805862f689e2f13df9f062ff482ad3ad112aca9e0847911ed832e158c525b339190a1565b60005474010000000000000000000000000000000000000000900460ff1681565b60005473ffffffffffffffffffffffffffffffffffffffff1633146102e157600080fd5b6000805460405173ffffffffffffffffffffffffffffffffffffffff909116917ff8df31144d9c2f0f6b59d69b8b98abd5459d07f2742c4df920b25aae33c6482091a26000805473ffffffffffffffffffffffffffffffffffffffff19169055565b60005473ffffffffffffffffffffffffffffffffffffffff16331461036757600080fd5b60005474010000000000000000000000000000000000000000900460ff161561038f57600080fd5b6000805474ff00000000000000000000000000000000000000001916740100000000000000000000000000000000000000001781556040517f6985a02210a168e66602d3235cb6db0e70f92b3ba4d376a33c0f3d9434bff6259190a1565b60005473ffffffffffffffffffffffffffffffffffffffff1681565b60025481565b60025490565b806040516020018082805190602001908083835b602083106104485780518252601f199092019160209182019101610429565b6001836020036101000a0380198251168184511680821785525050505050509050019150506040516020818303038152906040526040518082805190602001908083835b602083106104ab5780518252601f19909201916020918201910161048c565b51815160001960209485036101000a01908116901991909116179052604080519490920184900384206002558084526019908401527f486173682073746f726564207375636365737366756c6c79210000000000000083820152517f4b6dd491b159ced37b2544658dbe93b1ade3bc42918fde7f4597f08da43dbcd5945091829003606001925050a150565b60005473ffffffffffffffffffffffffffffffffffffffff16331461055b57600080fd5b61056481610567565b50565b73ffffffffffffffffffffffffffffffffffffffff8116151561058957600080fd5b6000805460405173ffffffffffffffffffffffffffffffffffffffff808516939216917f8be0079c531659141344cd1fd0a4f28419497f9722a3daafe3b4186f6b6457e091a36000805473ffffffffffffffffffffffffffffffffffffffff191673ffffffffffffffffffffffffffffffffffffffff929092169190911790555600a165627a7a72305820eba17f78cfa2f3344d9f1e994cf515df59211e9e15d2f4f926ecc4b579d3157a0029",
  "source": "pragma solidity ^0.4.24;\r\n\r\nimport \"openzeppelin-solidity/contracts/lifecycle/Pausable.sol\";\r\n\r\ncontract IPFShash is Pausable {\r\n    address owner = msg.sender;\r\n    function kill() private {\r\n        if (msg.sender == owner) selfdestruct(owner);\r\n    }\r\n    \r\n    //defining event for setting of the hash\r\n    event HashSet(\r\n    string _message\r\n    );\r\n    bytes32 public ipfsHash;\r\n \r\n    function sendHash(string x) public {\r\n    \r\n    //using keccack256 (SHA3) to hash the user input data\r\n    //string data must first be must be encode packed in order for keccack operation to be valid\r\n        ipfsHash = keccak256(abi.encodePacked(x));\r\n        \r\n    //logging that a hash has been sent\r\n        emit HashSet(\"Hash stored successfully!\");\r\n    }\r\n    //getter for hashing \r\n    function getHash() public view returns (bytes32 x) {\r\n        return ipfsHash;\r\n    }\r\n}\r\n",
  "sourcePath": "C:\\Users\\aparmenter\\repos\\Consensys\\ERC20bounty\\Fproj\\contracts\\IPFShash.sol",
  "compiler": {
    "name": "solc",
    "version": "0.4.24+commit.e67f0147.Emscripten.clang"
  },
  "schemaVersion": "2.0.1",
  "updatedAt": "2018-08-29T14:22:13.370Z"
}