{
  "contractName": "LaunchERC721",
  "abi": [
    {
      "constant": true,
      "inputs": [
        {
          "name": "_interfaceId",
          "type": "bytes4"
        }
      ],
      "name": "supportsInterface",
      "outputs": [
        {
          "name": "",
          "type": "bool"
        }
      ],
      "payable": false,
      "stateMutability": "view",
      "type": "function"
    },
    {
      "constant": true,
      "inputs": [],
      "name": "name",
      "outputs": [
        {
          "name": "",
          "type": "string"
        }
      ],
      "payable": false,
      "stateMutability": "view",
      "type": "function"
    },
    {
      "constant": true,
      "inputs": [
        {
          "name": "_tokenId",
          "type": "uint256"
        }
      ],
      "name": "getApproved",
      "outputs": [
        {
          "name": "",
          "type": "address"
        }
      ],
      "payable": false,
      "stateMutability": "view",
      "type": "function"
    },
    {
      "constant": false,
      "inputs": [
        {
          "name": "_to",
          "type": "address"
        },
        {
          "name": "_tokenId",
          "type": "uint256"
        }
      ],
      "name": "approve",
      "outputs": [],
      "payable": false,
      "stateMutability": "nonpayable",
      "type": "function"
    },
    {
      "constant": true,
      "inputs": [],
      "name": "totalSupply",
      "outputs": [
        {
          "name": "",
          "type": "uint256"
        }
      ],
      "payable": false,
      "stateMutability": "view",
      "type": "function"
    },
    {
      "constant": true,
      "inputs": [],
      "name": "InterfaceId_ERC165",
      "outputs": [
        {
          "name": "",
          "type": "bytes4"
        }
      ],
      "payable": false,
      "stateMutability": "view",
      "type": "function"
    },
    {
      "constant": false,
      "inputs": [
        {
          "name": "_from",
          "type": "address"
        },
        {
          "name": "_to",
          "type": "address"
        },
        {
          "name": "_tokenId",
          "type": "uint256"
        }
      ],
      "name": "transferFrom",
      "outputs": [],
      "payable": false,
      "stateMutability": "nonpayable",
      "type": "function"
    },
    {
      "constant": true,
      "inputs": [
        {
          "name": "_owner",
          "type": "address"
        },
        {
          "name": "_index",
          "type": "uint256"
        }
      ],
      "name": "tokenOfOwnerByIndex",
      "outputs": [
        {
          "name": "",
          "type": "uint256"
        }
      ],
      "payable": false,
      "stateMutability": "view",
      "type": "function"
    },
    {
      "constant": false,
      "inputs": [
        {
          "name": "_from",
          "type": "address"
        },
        {
          "name": "_to",
          "type": "address"
        },
        {
          "name": "_tokenId",
          "type": "uint256"
        }
      ],
      "name": "safeTransferFrom",
      "outputs": [],
      "payable": false,
      "stateMutability": "nonpayable",
      "type": "function"
    },
    {
      "constant": true,
      "inputs": [
        {
          "name": "_tokenId",
          "type": "uint256"
        }
      ],
      "name": "exists",
      "outputs": [
        {
          "name": "",
          "type": "bool"
        }
      ],
      "payable": false,
      "stateMutability": "view",
      "type": "function"
    },
    {
      "constant": true,
      "inputs": [
        {
          "name": "_index",
          "type": "uint256"
        }
      ],
      "name": "tokenByIndex",
      "outputs": [
        {
          "name": "",
          "type": "uint256"
        }
      ],
      "payable": false,
      "stateMutability": "view",
      "type": "function"
    },
    {
      "constant": true,
      "inputs": [],
      "name": "paused",
      "outputs": [
        {
          "name": "",
          "type": "bool"
        }
      ],
      "payable": false,
      "stateMutability": "view",
      "type": "function"
    },
    {
      "constant": true,
      "inputs": [
        {
          "name": "_tokenId",
          "type": "uint256"
        }
      ],
      "name": "ownerOf",
      "outputs": [
        {
          "name": "",
          "type": "address"
        }
      ],
      "payable": false,
      "stateMutability": "view",
      "type": "function"
    },
    {
      "constant": true,
      "inputs": [
        {
          "name": "_owner",
          "type": "address"
        }
      ],
      "name": "balanceOf",
      "outputs": [
        {
          "name": "",
          "type": "uint256"
        }
      ],
      "payable": false,
      "stateMutability": "view",
      "type": "function"
    },
    {
      "constant": false,
      "inputs": [],
      "name": "renounceOwnership",
      "outputs": [],
      "payable": false,
      "stateMutability": "nonpayable",
      "type": "function"
    },
    {
      "constant": true,
      "inputs": [],
      "name": "owner",
      "outputs": [
        {
          "name": "",
          "type": "address"
        }
      ],
      "payable": false,
      "stateMutability": "view",
      "type": "function"
    },
    {
      "constant": true,
      "inputs": [],
      "name": "symbol",
      "outputs": [
        {
          "name": "",
          "type": "string"
        }
      ],
      "payable": false,
      "stateMutability": "view",
      "type": "function"
    },
    {
      "constant": false,
      "inputs": [
        {
          "name": "_to",
          "type": "address"
        },
        {
          "name": "_approved",
          "type": "bool"
        }
      ],
      "name": "setApprovalForAll",
      "outputs": [],
      "payable": false,
      "stateMutability": "nonpayable",
      "type": "function"
    },
    {
      "constant": false,
      "inputs": [
        {
          "name": "_from",
          "type": "address"
        },
        {
          "name": "_to",
          "type": "address"
        },
        {
          "name": "_tokenId",
          "type": "uint256"
        },
        {
          "name": "_data",
          "type": "bytes"
        }
      ],
      "name": "safeTransferFrom",
      "outputs": [],
      "payable": false,
      "stateMutability": "nonpayable",
      "type": "function"
    },
    {
      "constant": true,
      "inputs": [
        {
          "name": "_tokenId",
          "type": "uint256"
        }
      ],
      "name": "tokenURI",
      "outputs": [
        {
          "name": "",
          "type": "string"
        }
      ],
      "payable": false,
      "stateMutability": "view",
      "type": "function"
    },
    {
      "constant": true,
      "inputs": [
        {
          "name": "_owner",
          "type": "address"
        },
        {
          "name": "_operator",
          "type": "address"
        }
      ],
      "name": "isApprovedForAll",
      "outputs": [
        {
          "name": "",
          "type": "bool"
        }
      ],
      "payable": false,
      "stateMutability": "view",
      "type": "function"
    },
    {
      "constant": false,
      "inputs": [
        {
          "name": "_newOwner",
          "type": "address"
        }
      ],
      "name": "transferOwnership",
      "outputs": [],
      "payable": false,
      "stateMutability": "nonpayable",
      "type": "function"
    },
    {
      "inputs": [
        {
          "name": "_name",
          "type": "string"
        },
        {
          "name": "_symbol",
          "type": "string"
        }
      ],
      "payable": false,
      "stateMutability": "nonpayable",
      "type": "constructor"
    },
    {
      "anonymous": false,
      "inputs": [],
      "name": "Paused",
      "type": "event"
    },
    {
      "anonymous": false,
      "inputs": [],
      "name": "Unpaused",
      "type": "event"
    },
    {
      "anonymous": false,
      "inputs": [],
      "name": "Pause",
      "type": "event"
    },
    {
      "anonymous": false,
      "inputs": [],
      "name": "Unpause",
      "type": "event"
    },
    {
      "anonymous": false,
      "inputs": [
        {
          "indexed": true,
          "name": "previousOwner",
          "type": "address"
        }
      ],
      "name": "OwnershipRenounced",
      "type": "event"
    },
    {
      "anonymous": false,
      "inputs": [
        {
          "indexed": true,
          "name": "previousOwner",
          "type": "address"
        },
        {
          "indexed": true,
          "name": "newOwner",
          "type": "address"
        }
      ],
      "name": "OwnershipTransferred",
      "type": "event"
    },
    {
      "anonymous": false,
      "inputs": [
        {
          "indexed": true,
          "name": "_from",
          "type": "address"
        },
        {
          "indexed": true,
          "name": "_to",
          "type": "address"
        },
        {
          "indexed": true,
          "name": "_tokenId",
          "type": "uint256"
        }
      ],
      "name": "Transfer",
      "type": "event"
    },
    {
      "anonymous": false,
      "inputs": [
        {
          "indexed": true,
          "name": "_owner",
          "type": "address"
        },
        {
          "indexed": true,
          "name": "_approved",
          "type": "address"
        },
        {
          "indexed": true,
          "name": "_tokenId",
          "type": "uint256"
        }
      ],
      "name": "Approval",
      "type": "event"
    },
    {
      "anonymous": false,
      "inputs": [
        {
          "indexed": true,
          "name": "_owner",
          "type": "address"
        },
        {
          "indexed": true,
          "name": "_operator",
          "type": "address"
        },
        {
          "indexed": false,
          "name": "_approved",
          "type": "bool"
        }
      ],
      "name": "ApprovalForAll",
      "type": "event"
    },
    {
      "constant": false,
      "inputs": [
        {
          "name": "_to",
          "type": "address"
        },
        {
          "name": "_tokenId",
          "type": "uint256"
        },
        {
          "name": "_tokenURI",
          "type": "string"
        }
      ],
      "name": "mintUniqueTokenTo",
      "outputs": [],
      "payable": false,
      "stateMutability": "nonpayable",
      "type": "function"
    },
    {
      "constant": false,
      "inputs": [],
      "name": "pause",
      "outputs": [],
      "payable": false,
      "stateMutability": "nonpayable",
      "type": "function"
    },
    {
      "constant": false,
      "inputs": [],
      "name": "unpause",
      "outputs": [],
      "payable": false,
      "stateMutability": "nonpayable",
      "type": "function"
    }
  ],
  "bytecode": "0x6080604052600c805460a060020a61ffff0219169055600d8054600160a060020a031916331790553480156200003457600080fd5b50604051620017a9380380620017a98339810160405280516020820151908201910181816200008c7f01ffc9a700000000000000000000000000000000000000000000000000000000640100000000620001a5810204565b620000c07f80ac58cd00000000000000000000000000000000000000000000000000000000640100000000620001a5810204565b620000f47f4f558e7900000000000000000000000000000000000000000000000000000000640100000000620001a5810204565b81516200010990600590602085019062000212565b5080516200011f90600690602084019062000212565b50620001547f780e9d6300000000000000000000000000000000000000000000000000000000640100000000620001a5810204565b620001887f5b5e139f00000000000000000000000000000000000000000000000000000000640100000000620001a5810204565b5050600c8054600160a060020a0319163317905550620002b79050565b7fffffffff000000000000000000000000000000000000000000000000000000008082161415620001d557600080fd5b7fffffffff00000000000000000000000000000000000000000000000000000000166000908152602081905260409020805460ff19166001179055565b828054600181600116156101000203166002900490600052602060002090601f016020900481019282601f106200025557805160ff191683800117855562000285565b8280016001018555821562000285579182015b828111156200028557825182559160200191906001019062000268565b506200029392915062000297565b5090565b620002b491905b808211156200029357600081556001016200029e565b90565b6114e280620002c76000396000f3006080604052600436106101485763ffffffff7c010000000000000000000000000000000000000000000000000000000060003504166301ffc9a7811461014d57806306fdde0314610198578063081812fc14610222578063095ea7b31461025657806318160ddd1461027c57806319fa8f50146102a357806323b872dd146102ea57806326dd860a146103145780632f745c591461037d5780633f4ba83a146103a157806342842e0e146103b65780634f558e79146103e05780634f6ccce7146103f85780635c975abb146104105780636352211e1461042557806370a082311461043d578063715018a61461045e5780638456cb59146104735780638da5cb5b1461048857806395d89b411461049d578063a22cb465146104b2578063b88d4fde146104d8578063c87b56dd14610547578063e985e9c51461055f578063f2fde38b14610586575b600080fd5b34801561015957600080fd5b506101847bffffffffffffffffffffffffffffffffffffffffffffffffffffffff19600435166105a7565b604080519115158252519081900360200190f35b3480156101a457600080fd5b506101ad6105db565b6040805160208082528351818301528351919283929083019185019080838360005b838110156101e75781810151838201526020016101cf565b50505050905090810190601f1680156102145780820380516001836020036101000a031916815260200191505b509250505060405180910390f35b34801561022e57600080fd5b5061023a600435610672565b60408051600160a060020a039092168252519081900360200190f35b34801561026257600080fd5b5061027a600160a060020a036004351660243561068d565b005b34801561028857600080fd5b50610291610743565b60408051918252519081900360200190f35b3480156102af57600080fd5b506102b8610749565b604080517bffffffffffffffffffffffffffffffffffffffffffffffffffffffff199092168252519081900360200190f35b3480156102f657600080fd5b5061027a600160a060020a036004358116906024351660443561076d565b34801561032057600080fd5b50604080516020600460443581810135601f810184900484028501840190955284845261027a948235600160a060020a03169460248035953695946064949201919081908401838280828437509497506108129650505050505050565b34801561038957600080fd5b50610291600160a060020a0360043516602435610854565b3480156103ad57600080fd5b5061027a6108a1565b3480156103c257600080fd5b5061027a600160a060020a036004358116906024351660443561092c565b3480156103ec57600080fd5b50610184600435610964565b34801561040457600080fd5b50610291600435610981565b34801561041c57600080fd5b506101846109b6565b34801561043157600080fd5b5061023a6004356109d8565b34801561044957600080fd5b50610291600160a060020a0360043516610a02565b34801561046a57600080fd5b5061027a610a35565b34801561047f57600080fd5b5061027a610aa3565b34801561049457600080fd5b5061023a610b45565b3480156104a957600080fd5b506101ad610b54565b3480156104be57600080fd5b5061027a600160a060020a03600435166024351515610bb5565b3480156104e457600080fd5b50604080516020601f60643560048181013592830184900484028501840190955281845261027a94600160a060020a038135811695602480359092169560443595369560849401918190840183828082843750949750610c399650505050505050565b34801561055357600080fd5b506101ad600435610c78565b34801561056b57600080fd5b50610184600160a060020a0360043581169060243516610d2d565b34801561059257600080fd5b5061027a600160a060020a0360043516610d5b565b7bffffffffffffffffffffffffffffffffffffffffffffffffffffffff191660009081526020819052604090205460ff1690565b60058054604080516020601f60026000196101006001881615020190951694909404938401819004810282018101909252828152606093909290918301828280156106675780601f1061063c57610100808354040283529160200191610667565b820191906000526020600020905b81548152906001019060200180831161064a57829003601f168201915b505050505090505b90565b600090815260026020526040902054600160a060020a031690565b6000610698826109d8565b9050600160a060020a0383811690821614156106b357600080fd5b33600160a060020a03821614806106cf57506106cf8133610d2d565b15156106da57600080fd5b600082815260026020526040808220805473ffffffffffffffffffffffffffffffffffffffff1916600160a060020a0387811691821790925591518593918516917f8c5be1e5ebec7d5bd14f71427d1e84f3dd0314c0f7b2291e5b200ac8c7c3b92591a4505050565b60095490565b7f01ffc9a70000000000000000000000000000000000000000000000000000000081565b806107783382610d7e565b151561078357600080fd5b600160a060020a038416151561079857600080fd5b600160a060020a03831615156107ad57600080fd5b6107b78483610ddd565b6107c18483610e4e565b6107cb8383610f87565b8183600160a060020a031685600160a060020a03167fddf252ad1be2c89b69c2b068fc378daa952ba7f163c4a11628f55a4df523b3ef60405160405180910390a450505050565b600c547501000000000000000000000000000000000000000000900460ff161561083b57600080fd5b6108458383610fd0565b61084f828261101f565b505050565b600061085f83610a02565b821061086a57600080fd5b600160a060020a038316600090815260076020526040902080548390811061088e57fe5b9060005260206000200154905092915050565b600c54600160a060020a031633146108b857600080fd5b600c547501000000000000000000000000000000000000000000900460ff1615156108e257600080fd5b600c805475ff000000000000000000000000000000000000000000191690556040517fa45f47fdea8a1efdd9029a5691c7f759c32b7c698632b563573e155625d1693390600090a1565b806109373382610d7e565b151561094257600080fd5b61095e8484846020604051908101604052806000815250610c39565b50505050565b600090815260016020526040902054600160a060020a0316151590565b600061098b610743565b821061099657600080fd5b60098054839081106109a457fe5b90600052602060002001549050919050565b600c547501000000000000000000000000000000000000000000900460ff1681565b600081815260016020526040812054600160a060020a03168015156109fc57600080fd5b92915050565b6000600160a060020a0382161515610a1957600080fd5b50600160a060020a031660009081526003602052604090205490565b600c54600160a060020a03163314610a4c57600080fd5b600c54604051600160a060020a03909116907ff8df31144d9c2f0f6b59d69b8b98abd5459d07f2742c4df920b25aae33c6482090600090a2600c805473ffffffffffffffffffffffffffffffffffffffff19169055565b600c54600160a060020a03163314610aba57600080fd5b600c547501000000000000000000000000000000000000000000900460ff1615610ae357600080fd5b600c805475ff000000000000000000000000000000000000000000191675010000000000000000000000000000000000000000001790556040517f9e87fac88ff661f02d44f95383c817fece4bce600a3dab7a54406878b965e75290600090a1565b600c54600160a060020a031681565b60068054604080516020601f60026000196101006001881615020190951694909404938401819004810282018101909252828152606093909290918301828280156106675780601f1061063c57610100808354040283529160200191610667565b600160a060020a038216331415610bcb57600080fd5b336000818152600460209081526040808320600160a060020a03871680855290835292819020805460ff1916861515908117909155815190815290519293927f17307eab39ab6107e8899845ad3d59bd9653f200f220920489ca2b5937696c31929181900390910190a35050565b81610c443382610d7e565b1515610c4f57600080fd5b610c5a85858561076d565b610c6685858585611052565b1515610c7157600080fd5b5050505050565b6060610c8382610964565b1515610c8e57600080fd5b6000828152600b602090815260409182902080548351601f600260001961010060018616150201909316929092049182018490048402810184019094528084529091830182828015610d215780601f10610cf657610100808354040283529160200191610d21565b820191906000526020600020905b815481529060010190602001808311610d0457829003601f168201915b50505050509050919050565b600160a060020a03918216600090815260046020908152604080832093909416825291909152205460ff1690565b600c54600160a060020a03163314610d7257600080fd5b610d7b816111d4565b50565b600080610d8a836109d8565b905080600160a060020a031684600160a060020a03161480610dc5575083600160a060020a0316610dba84610672565b600160a060020a0316145b80610dd55750610dd58185610d2d565b949350505050565b81600160a060020a0316610df0826109d8565b600160a060020a031614610e0357600080fd5b600081815260026020526040902054600160a060020a031615610e4a576000818152600260205260409020805473ffffffffffffffffffffffffffffffffffffffff191690555b5050565b6000806000610e5d8585611252565b600084815260086020908152604080832054600160a060020a0389168452600790925290912054909350610e9890600163ffffffff6112e816565b600160a060020a038616600090815260076020526040902080549193509083908110610ec057fe5b90600052602060002001549050806007600087600160a060020a0316600160a060020a0316815260200190815260200160002084815481101515610f0057fe5b6000918252602080832090910192909255600160a060020a0387168152600790915260408120805484908110610f3257fe5b6000918252602080832090910192909255600160a060020a0387168152600790915260409020805490610f699060001983016113fa565b50600093845260086020526040808520859055908452909220555050565b6000610f9383836112fa565b50600160a060020a039091166000908152600760209081526040808320805460018101825590845282842081018590559383526008909152902055565b610fda828261138a565b600980546000838152600a60205260408120829055600182018355919091527f6e1540171b6c0c960b71a7020d9f60077f6af931a8bbf590da0223dacf75c7af015550565b61102882610964565b151561103357600080fd5b6000828152600b60209081526040909120825161084f9284019061141e565b60008061106785600160a060020a03166113e5565b151561107657600191506111cb565b6040517f150b7a020000000000000000000000000000000000000000000000000000000081523360048201818152600160a060020a03898116602485015260448401889052608060648501908152875160848601528751918a169463150b7a0294938c938b938b93909160a490910190602085019080838360005b838110156111095781810151838201526020016110f1565b50505050905090810190601f1680156111365780820380516001836020036101000a031916815260200191505b5095505050505050602060405180830381600087803b15801561115857600080fd5b505af115801561116c573d6000803e3d6000fd5b505050506040513d602081101561118257600080fd5b50517bffffffffffffffffffffffffffffffffffffffffffffffffffffffff1981167f150b7a020000000000000000000000000000000000000000000000000000000014925090505b50949350505050565b600160a060020a03811615156111e957600080fd5b600c54604051600160a060020a038084169216907f8be0079c531659141344cd1fd0a4f28419497f9722a3daafe3b4186f6b6457e090600090a3600c805473ffffffffffffffffffffffffffffffffffffffff1916600160a060020a0392909216919091179055565b81600160a060020a0316611265826109d8565b600160a060020a03161461127857600080fd5b600160a060020a0382166000908152600360205260409020546112a290600163ffffffff6112e816565b600160a060020a03909216600090815260036020908152604080832094909455918152600190915220805473ffffffffffffffffffffffffffffffffffffffff19169055565b6000828211156112f457fe5b50900390565b600081815260016020526040902054600160a060020a03161561131c57600080fd5b6000818152600160208181526040808420805473ffffffffffffffffffffffffffffffffffffffff1916600160a060020a038816908117909155845260039091529091205461136a916113ed565b600160a060020a0390921660009081526003602052604090209190915550565b600160a060020a038216151561139f57600080fd5b6113a98282610f87565b6040518190600160a060020a038416906000907fddf252ad1be2c89b69c2b068fc378daa952ba7f163c4a11628f55a4df523b3ef908290a45050565b6000903b1190565b818101828110156109fc57fe5b81548183558181111561084f5760008381526020902061084f91810190830161149c565b828054600181600116156101000203166002900490600052602060002090601f016020900481019282601f1061145f57805160ff191683800117855561148c565b8280016001018555821561148c579182015b8281111561148c578251825591602001919060010190611471565b5061149892915061149c565b5090565b61066f91905b8082111561149857600081556001016114a25600a165627a7a7230582039adaf5ccb39e3bc9416964fc3a012c89984b7dcd9f45dd676dfa202cc1744700029",
  "source": "pragma solidity ^0.4.23;\r\n\r\nimport \"openzeppelin-solidity/contracts/token/ERC721/ERC721Token.sol\";\r\nimport \"openzeppelin-solidity/contracts/lifecycle/Pausable.sol\";\r\n\r\ncontract LaunchERC721 is ERC721Token, Pausable {\r\n    event Paused();\r\n    event Unpaused();\r\n\r\n    bool public paused = false;\r\n    address owner = msg.sender;\r\n    function kill() private {\r\n        if (msg.sender == owner) selfdestruct(owner);\r\n    }\r\n    constructor (string _name, string _symbol) public\r\n        ERC721Token(_name, _symbol)\r\n    {\r\n    }\r\n\r\n    /**\r\n   * @dev called by the owner to pause, triggers stopped state\r\n   */\r\n    modifier whenNotPaused() {\r\n        require(!paused);\r\n        _;\r\n    }\r\n\r\n    modifier whenPaused() {\r\n        require(paused);\r\n        _;\r\n    }\r\n\r\n    /**\r\n    * Custom accessor to mint a unique token\r\n    */\r\n    function mintUniqueTokenTo(\r\n        address _to,\r\n        uint256 _tokenId,\r\n        string  _tokenURI\r\n    ) public whenNotPaused\r\n    {\r\n        super._mint(_to, _tokenId);\r\n        super._setTokenURI(_tokenId, _tokenURI);\r\n    }\r\n    /**\r\n   * @dev called by the owner to pause, triggers stopped state\r\n   */\r\n    function pause() public onlyOwner whenNotPaused {\r\n        paused = true;\r\n        emit Paused();\r\n    }\r\n\r\n  /**\r\n   * @dev called by the owner to unpause, returns to normal state\r\n   */\r\n    function unpause() public onlyOwner whenPaused {\r\n        paused = false;\r\n        emit Unpaused();\r\n    }\r\n}\r\n",
  "sourcePath": "C:\\Users\\aparmenter\\repos\\Consensys\\ERC20bounty\\Fproj\\contracts\\LaunchERC721.sol",
  "compiler": {
    "name": "solc",
    "version": "0.4.24+commit.e67f0147.Emscripten.clang"
  },
  "schemaVersion": "2.0.1",
  "updatedAt": "2018-08-29T14:50:56.695Z"
}