{
  "contractName": "NewToken",
  "abi": [
    {
      "constant": true,
      "inputs": [],
      "name": "name",
      "outputs": [
        {
          "name": "",
          "type": "string"
        }
      ],
      "payable": false,
      "stateMutability": "view",
      "type": "function"
    },
    {
      "constant": false,
      "inputs": [
        {
          "name": "_spender",
          "type": "address"
        },
        {
          "name": "_value",
          "type": "uint256"
        }
      ],
      "name": "approve",
      "outputs": [
        {
          "name": "",
          "type": "bool"
        }
      ],
      "payable": false,
      "stateMutability": "nonpayable",
      "type": "function"
    },
    {
      "constant": true,
      "inputs": [],
      "name": "totalSupply",
      "outputs": [
        {
          "name": "",
          "type": "uint256"
        }
      ],
      "payable": false,
      "stateMutability": "view",
      "type": "function"
    },
    {
      "constant": false,
      "inputs": [
        {
          "name": "_from",
          "type": "address"
        },
        {
          "name": "_to",
          "type": "address"
        },
        {
          "name": "_value",
          "type": "uint256"
        }
      ],
      "name": "transferFrom",
      "outputs": [
        {
          "name": "",
          "type": "bool"
        }
      ],
      "payable": false,
      "stateMutability": "nonpayable",
      "type": "function"
    },
    {
      "constant": true,
      "inputs": [],
      "name": "INITIAL_SUPPLY",
      "outputs": [
        {
          "name": "",
          "type": "uint256"
        }
      ],
      "payable": false,
      "stateMutability": "view",
      "type": "function"
    },
    {
      "constant": true,
      "inputs": [],
      "name": "decimals",
      "outputs": [
        {
          "name": "",
          "type": "uint256"
        }
      ],
      "payable": false,
      "stateMutability": "view",
      "type": "function"
    },
    {
      "constant": true,
      "inputs": [],
      "name": "paused",
      "outputs": [
        {
          "name": "",
          "type": "bool"
        }
      ],
      "payable": false,
      "stateMutability": "view",
      "type": "function"
    },
    {
      "constant": false,
      "inputs": [
        {
          "name": "_spender",
          "type": "address"
        },
        {
          "name": "_subtractedValue",
          "type": "uint256"
        }
      ],
      "name": "decreaseApproval",
      "outputs": [
        {
          "name": "",
          "type": "bool"
        }
      ],
      "payable": false,
      "stateMutability": "nonpayable",
      "type": "function"
    },
    {
      "constant": true,
      "inputs": [
        {
          "name": "_owner",
          "type": "address"
        }
      ],
      "name": "balanceOf",
      "outputs": [
        {
          "name": "",
          "type": "uint256"
        }
      ],
      "payable": false,
      "stateMutability": "view",
      "type": "function"
    },
    {
      "constant": false,
      "inputs": [],
      "name": "renounceOwnership",
      "outputs": [],
      "payable": false,
      "stateMutability": "nonpayable",
      "type": "function"
    },
    {
      "constant": true,
      "inputs": [],
      "name": "owner",
      "outputs": [
        {
          "name": "",
          "type": "address"
        }
      ],
      "payable": false,
      "stateMutability": "view",
      "type": "function"
    },
    {
      "constant": true,
      "inputs": [],
      "name": "symbol",
      "outputs": [
        {
          "name": "",
          "type": "string"
        }
      ],
      "payable": false,
      "stateMutability": "view",
      "type": "function"
    },
    {
      "constant": false,
      "inputs": [
        {
          "name": "_to",
          "type": "address"
        },
        {
          "name": "_value",
          "type": "uint256"
        }
      ],
      "name": "transfer",
      "outputs": [
        {
          "name": "",
          "type": "bool"
        }
      ],
      "payable": false,
      "stateMutability": "nonpayable",
      "type": "function"
    },
    {
      "constant": false,
      "inputs": [
        {
          "name": "_spender",
          "type": "address"
        },
        {
          "name": "_addedValue",
          "type": "uint256"
        }
      ],
      "name": "increaseApproval",
      "outputs": [
        {
          "name": "",
          "type": "bool"
        }
      ],
      "payable": false,
      "stateMutability": "nonpayable",
      "type": "function"
    },
    {
      "constant": true,
      "inputs": [
        {
          "name": "_owner",
          "type": "address"
        },
        {
          "name": "_spender",
          "type": "address"
        }
      ],
      "name": "allowance",
      "outputs": [
        {
          "name": "",
          "type": "uint256"
        }
      ],
      "payable": false,
      "stateMutability": "view",
      "type": "function"
    },
    {
      "constant": false,
      "inputs": [
        {
          "name": "_newOwner",
          "type": "address"
        }
      ],
      "name": "transferOwnership",
      "outputs": [],
      "payable": false,
      "stateMutability": "nonpayable",
      "type": "function"
    },
    {
      "inputs": [],
      "payable": false,
      "stateMutability": "nonpayable",
      "type": "constructor"
    },
    {
      "anonymous": false,
      "inputs": [],
      "name": "Paused",
      "type": "event"
    },
    {
      "anonymous": false,
      "inputs": [],
      "name": "Unpaused",
      "type": "event"
    },
    {
      "anonymous": false,
      "inputs": [],
      "name": "Pause",
      "type": "event"
    },
    {
      "anonymous": false,
      "inputs": [],
      "name": "Unpause",
      "type": "event"
    },
    {
      "anonymous": false,
      "inputs": [
        {
          "indexed": true,
          "name": "previousOwner",
          "type": "address"
        }
      ],
      "name": "OwnershipRenounced",
      "type": "event"
    },
    {
      "anonymous": false,
      "inputs": [
        {
          "indexed": true,
          "name": "previousOwner",
          "type": "address"
        },
        {
          "indexed": true,
          "name": "newOwner",
          "type": "address"
        }
      ],
      "name": "OwnershipTransferred",
      "type": "event"
    },
    {
      "anonymous": false,
      "inputs": [
        {
          "indexed": true,
          "name": "owner",
          "type": "address"
        },
        {
          "indexed": true,
          "name": "spender",
          "type": "address"
        },
        {
          "indexed": false,
          "name": "value",
          "type": "uint256"
        }
      ],
      "name": "Approval",
      "type": "event"
    },
    {
      "anonymous": false,
      "inputs": [
        {
          "indexed": true,
          "name": "from",
          "type": "address"
        },
        {
          "indexed": true,
          "name": "to",
          "type": "address"
        },
        {
          "indexed": false,
          "name": "value",
          "type": "uint256"
        }
      ],
      "name": "Transfer",
      "type": "event"
    },
    {
      "constant": false,
      "inputs": [],
      "name": "pause",
      "outputs": [],
      "payable": false,
      "stateMutability": "nonpayable",
      "type": "function"
    },
    {
      "constant": false,
      "inputs": [],
      "name": "unpause",
      "outputs": [],
      "payable": false,
      "stateMutability": "nonpayable",
      "type": "function"
    }
  ],
  "bytecode": "0x6003805460a060020a60ff021916815560c060405260808190527f4e6577000000000000000000000000000000000000000000000000000000000060a090815261004c91600491906100f9565b506040805180820190915260028082527f4e540000000000000000000000000000000000000000000000000000000000006020909201918252610091916005916100f9565b506002600655620186a06007556008805460a060020a60ff02191690553480156100ba57600080fd5b506003805433600160a060020a031991821681179092556008805490911682179055600754600181905560009182526020829052604090912055610194565b828054600181600116156101000203166002900490600052602060002090601f016020900481019282601f1061013a57805160ff1916838001178555610167565b82800160010185558215610167579182015b8281111561016757825182559160200191906001019061014c565b50610173929150610177565b5090565b61019191905b80821115610173576000815560010161017d565b90565b610bee806101a36000396000f3006080604052600436106100fb5763ffffffff7c010000000000000000000000000000000000000000000000000000000060003504166306fdde038114610100578063095ea7b31461018a57806318160ddd146101c257806323b872dd146101e95780632ff2e9dc14610213578063313ce567146102285780633f4ba83a1461023d5780635c975abb14610254578063661884631461026957806370a082311461028d578063715018a6146102ae5780638456cb59146102c35780638da5cb5b146102d857806395d89b4114610309578063a9059cbb1461031e578063d73dd62314610342578063dd62ed3e14610366578063f2fde38b1461038d575b600080fd5b34801561010c57600080fd5b506101156103ae565b6040805160208082528351818301528351919283929083019185019080838360005b8381101561014f578181015183820152602001610137565b50505050905090810190601f16801561017c5780820380516001836020036101000a031916815260200191505b509250505060405180910390f35b34801561019657600080fd5b506101ae600160a060020a036004351660243561043c565b604080519115158252519081900360200190f35b3480156101ce57600080fd5b506101d76104a2565b60408051918252519081900360200190f35b3480156101f557600080fd5b506101ae600160a060020a03600435811690602435166044356104a8565b34801561021f57600080fd5b506101d761061f565b34801561023457600080fd5b506101d7610625565b34801561024957600080fd5b5061025261062b565b005b34801561026057600080fd5b506101ae6106b4565b34801561027557600080fd5b506101ae600160a060020a03600435166024356106d5565b34801561029957600080fd5b506101d7600160a060020a03600435166107c5565b3480156102ba57600080fd5b506102526107e0565b3480156102cf57600080fd5b5061025261084e565b3480156102e457600080fd5b506102ed6108ed565b60408051600160a060020a039092168252519081900360200190f35b34801561031557600080fd5b506101156108fc565b34801561032a57600080fd5b506101ae600160a060020a0360043516602435610957565b34801561034e57600080fd5b506101ae600160a060020a0360043516602435610a38565b34801561037257600080fd5b506101d7600160a060020a0360043581169060243516610ad1565b34801561039957600080fd5b50610252600160a060020a0360043516610afc565b6004805460408051602060026001851615610100026000190190941693909304601f810184900484028201840190925281815292918301828280156104345780601f1061040957610100808354040283529160200191610434565b820191906000526020600020905b81548152906001019060200180831161041757829003601f168201915b505050505081565b336000818152600260209081526040808320600160a060020a038716808552908352818420869055815186815291519394909390927f8c5be1e5ebec7d5bd14f71427d1e84f3dd0314c0f7b2291e5b200ac8c7c3b925928290030190a350600192915050565b60015490565b6000600160a060020a03831615156104bf57600080fd5b600160a060020a0384166000908152602081905260409020548211156104e457600080fd5b600160a060020a038416600090815260026020908152604080832033845290915290205482111561051457600080fd5b600160a060020a03841660009081526020819052604090205461053d908363ffffffff610b1f16565b600160a060020a038086166000908152602081905260408082209390935590851681522054610572908363ffffffff610b3116565b600160a060020a038085166000908152602081815260408083209490945591871681526002825282812033825290915220546105b4908363ffffffff610b1f16565b600160a060020a03808616600081815260026020908152604080832033845282529182902094909455805186815290519287169391927fddf252ad1be2c89b69c2b068fc378daa952ba7f163c4a11628f55a4df523b3ef929181900390910190a35060019392505050565b60075481565b60065481565b600354600160a060020a0316331461064257600080fd5b60085474010000000000000000000000000000000000000000900460ff16151561066b57600080fd5b6008805474ff0000000000000000000000000000000000000000191690556040517fa45f47fdea8a1efdd9029a5691c7f759c32b7c698632b563573e155625d1693390600090a1565b60085474010000000000000000000000000000000000000000900460ff1681565b336000908152600260209081526040808320600160a060020a03861684529091528120548083111561072a57336000908152600260209081526040808320600160a060020a038816845290915281205561075f565b61073a818463ffffffff610b1f16565b336000908152600260209081526040808320600160a060020a03891684529091529020555b336000818152600260209081526040808320600160a060020a0389168085529083529281902054815190815290519293927f8c5be1e5ebec7d5bd14f71427d1e84f3dd0314c0f7b2291e5b200ac8c7c3b925929181900390910190a35060019392505050565b600160a060020a031660009081526020819052604090205490565b600354600160a060020a031633146107f757600080fd5b600354604051600160a060020a03909116907ff8df31144d9c2f0f6b59d69b8b98abd5459d07f2742c4df920b25aae33c6482090600090a26003805473ffffffffffffffffffffffffffffffffffffffff19169055565b600354600160a060020a0316331461086557600080fd5b60085474010000000000000000000000000000000000000000900460ff161561088d57600080fd5b6008805474ff00000000000000000000000000000000000000001916740100000000000000000000000000000000000000001790556040517f9e87fac88ff661f02d44f95383c817fece4bce600a3dab7a54406878b965e75290600090a1565b600354600160a060020a031681565b6005805460408051602060026001851615610100026000190190941693909304601f810184900484028201840190925281815292918301828280156104345780601f1061040957610100808354040283529160200191610434565b6000600160a060020a038316151561096e57600080fd5b3360009081526020819052604090205482111561098a57600080fd5b336000908152602081905260409020546109aa908363ffffffff610b1f16565b3360009081526020819052604080822092909255600160a060020a038516815220546109dc908363ffffffff610b3116565b600160a060020a038416600081815260208181526040918290209390935580518581529051919233927fddf252ad1be2c89b69c2b068fc378daa952ba7f163c4a11628f55a4df523b3ef9281900390910190a350600192915050565b336000908152600260209081526040808320600160a060020a0386168452909152812054610a6c908363ffffffff610b3116565b336000818152600260209081526040808320600160a060020a0389168085529083529281902085905580519485525191937f8c5be1e5ebec7d5bd14f71427d1e84f3dd0314c0f7b2291e5b200ac8c7c3b925929081900390910190a350600192915050565b600160a060020a03918216600090815260026020908152604080832093909416825291909152205490565b600354600160a060020a03163314610b1357600080fd5b610b1c81610b44565b50565b600082821115610b2b57fe5b50900390565b81810182811015610b3e57fe5b92915050565b600160a060020a0381161515610b5957600080fd5b600354604051600160a060020a038084169216907f8be0079c531659141344cd1fd0a4f28419497f9722a3daafe3b4186f6b6457e090600090a36003805473ffffffffffffffffffffffffffffffffffffffff1916600160a060020a03929092169190911790555600a165627a7a72305820eea682de7515eb3adf90919a3ec9975af2f5fe5ab2f8b33b496534e99f5ea50d0029",
  "source": "pragma solidity ^0.4.23;\r\n\r\n//imporint openzeppelin library to have access to ERC20 token standard functions\r\nimport \"openzeppelin-solidity/contracts/token/ERC20/StandardToken.sol\";\r\nimport \"openzeppelin-solidity/contracts/lifecycle/Pausable.sol\";\r\n\r\n//Initializing custom ERC20 token launch parameters\r\ncontract NewToken is StandardToken, Pausable {\r\n\r\n    string public name = \"New\";\r\n    string public symbol = \"NT\";\r\n    uint public decimals = 2;\r\n    uint public INITIAL_SUPPLY = 100000;\r\n    address owner;\r\n    bool public paused = false;\r\n\r\n    event Paused();\r\n    event Unpaused();\r\n\r\n//constructor implemented with parameters set above and capturing owner\r\n    constructor() public {\r\n        owner = msg.sender;\r\n        totalSupply_ = INITIAL_SUPPLY;\r\n        balances[msg.sender] = INITIAL_SUPPLY;\r\n    }\r\n    /**\r\n   * @dev called by the owner to pause, triggers stopped state\r\n   */\r\n    modifier whenNotPaused() {\r\n        require(!paused);\r\n        _;\r\n    }\r\n\r\n    modifier whenPaused() {\r\n        require(paused);\r\n        _;\r\n    }\r\n\r\n    function kill() private whenNotPaused {\r\n        if (msg.sender == owner) selfdestruct(owner);\r\n    }\r\n\r\n    function pause() public onlyOwner whenNotPaused {\r\n        paused = true;\r\n        emit Paused();\r\n    }\r\n\r\n  /**\r\n   * @dev called by the owner to unpause, returns to normal state\r\n   */\r\n    function unpause() public onlyOwner whenPaused {\r\n        paused = false;\r\n        emit Unpaused();\r\n    }\r\n}\r\n",
  "sourcePath": "C:\\Users\\aparmenter\\repos\\Consensys\\ERC20bounty\\Fproj\\contracts\\NewToken.sol",
  "compiler": {
    "name": "solc",
    "version": "0.4.24+commit.e67f0147.Emscripten.clang"
  },
  "schemaVersion": "2.0.1",
  "updatedAt": "2018-08-29T14:22:13.366Z"
}