{
  "contractName": "IPFShash",
  "abi": [
    {
      "constant": true,
      "inputs": [],
      "name": "ipfsHash",
      "outputs": [
        {
          "name": "",
          "type": "bytes32"
        }
      ],
      "payable": false,
      "stateMutability": "view",
      "type": "function"
    },
    {
      "anonymous": false,
      "inputs": [
        {
          "indexed": false,
          "name": "_message",
          "type": "string"
        }
      ],
      "name": "HashSet",
      "type": "event"
    },
    {
      "constant": false,
      "inputs": [
        {
          "name": "x",
          "type": "string"
        }
      ],
      "name": "sendHash",
      "outputs": [],
      "payable": false,
      "stateMutability": "nonpayable",
      "type": "function"
    },
    {
      "constant": true,
      "inputs": [],
      "name": "getHash",
      "outputs": [
        {
          "name": "x",
          "type": "bytes32"
        }
      ],
      "payable": false,
      "stateMutability": "view",
      "type": "function"
    }
  ],
  "bytecode": "0x608060405234801561001057600080fd5b5061024c806100206000396000f3006080604052600436106100565763ffffffff7c0100000000000000000000000000000000000000000000000000000000600035041663c623674f811461005b578063d13319c414610082578063dfb2993514610097575b600080fd5b34801561006757600080fd5b506100706100f2565b60408051918252519081900360200190f35b34801561008e57600080fd5b506100706100f8565b3480156100a357600080fd5b506040805160206004803580820135601f81018490048402850184019095528484526100f09436949293602493928401919081908401838280828437509497506100fe9650505050505050565b005b60005481565b60005490565b806040516020018082805190602001908083835b602083106101315780518252601f199092019160209182019101610112565b6001836020036101000a0380198251168184511680821785525050505050509050019150506040516020818303038152906040526040518082805190602001908083835b602083106101945780518252601f199092019160209182019101610175565b51815160001960209485036101000a01908116901991909116179052604080519490920184900384206000558084526019908401527f486173682073746f726564207375636365737366756c6c79210000000000000083820152517f4b6dd491b159ced37b2544658dbe93b1ade3bc42918fde7f4597f08da43dbcd5945091829003606001925050a1505600a165627a7a723058203e372d228d56b912c15aa9024fa8295002f407c14c7aa9e3683c57eaa5b33e270029",
  "source": "pragma solidity ^0.4.24;\r\n\r\ncontract IPFShash {\r\n    event HashSet(\r\n    string _message\r\n    );\r\n    bytes32 public ipfsHash;\r\n \r\n    function sendHash(string x) public {\r\n        ipfsHash = keccak256(abi.encodePacked(x));\r\n\r\n        emit HashSet(\"Hash stored successfully!\");\r\n    }\r\n\r\n    function getHash() public view returns (bytes32 x) {\r\n        return ipfsHash;\r\n    }\r\n}",
  "sourcePath": "C:\\users\\aparmenter\\ConsensysFinalProj\\Fproj\\contracts\\IPFShash.sol",
  "compiler": {
    "name": "solc",
    "version": "0.4.24+commit.e67f0147.Emscripten.clang"
  },
  "schemaVersion": "2.0.1",
  "updatedAt": "2018-08-27T02:24:24.002Z"
}