{
  "contractName": "LaunchERC721",
  "abi": [
    {
      "constant": true,
      "inputs": [
        {
          "name": "_interfaceId",
          "type": "bytes4"
        }
      ],
      "name": "supportsInterface",
      "outputs": [
        {
          "name": "",
          "type": "bool"
        }
      ],
      "payable": false,
      "stateMutability": "view",
      "type": "function"
    },
    {
      "constant": true,
      "inputs": [],
      "name": "name",
      "outputs": [
        {
          "name": "",
          "type": "string"
        }
      ],
      "payable": false,
      "stateMutability": "view",
      "type": "function"
    },
    {
      "constant": true,
      "inputs": [
        {
          "name": "_tokenId",
          "type": "uint256"
        }
      ],
      "name": "getApproved",
      "outputs": [
        {
          "name": "",
          "type": "address"
        }
      ],
      "payable": false,
      "stateMutability": "view",
      "type": "function"
    },
    {
      "constant": false,
      "inputs": [
        {
          "name": "_to",
          "type": "address"
        },
        {
          "name": "_tokenId",
          "type": "uint256"
        }
      ],
      "name": "approve",
      "outputs": [],
      "payable": false,
      "stateMutability": "nonpayable",
      "type": "function"
    },
    {
      "constant": true,
      "inputs": [],
      "name": "totalSupply",
      "outputs": [
        {
          "name": "",
          "type": "uint256"
        }
      ],
      "payable": false,
      "stateMutability": "view",
      "type": "function"
    },
    {
      "constant": true,
      "inputs": [],
      "name": "InterfaceId_ERC165",
      "outputs": [
        {
          "name": "",
          "type": "bytes4"
        }
      ],
      "payable": false,
      "stateMutability": "view",
      "type": "function"
    },
    {
      "constant": false,
      "inputs": [
        {
          "name": "_from",
          "type": "address"
        },
        {
          "name": "_to",
          "type": "address"
        },
        {
          "name": "_tokenId",
          "type": "uint256"
        }
      ],
      "name": "transferFrom",
      "outputs": [],
      "payable": false,
      "stateMutability": "nonpayable",
      "type": "function"
    },
    {
      "constant": true,
      "inputs": [
        {
          "name": "_owner",
          "type": "address"
        },
        {
          "name": "_index",
          "type": "uint256"
        }
      ],
      "name": "tokenOfOwnerByIndex",
      "outputs": [
        {
          "name": "",
          "type": "uint256"
        }
      ],
      "payable": false,
      "stateMutability": "view",
      "type": "function"
    },
    {
      "constant": false,
      "inputs": [
        {
          "name": "_from",
          "type": "address"
        },
        {
          "name": "_to",
          "type": "address"
        },
        {
          "name": "_tokenId",
          "type": "uint256"
        }
      ],
      "name": "safeTransferFrom",
      "outputs": [],
      "payable": false,
      "stateMutability": "nonpayable",
      "type": "function"
    },
    {
      "constant": true,
      "inputs": [
        {
          "name": "_tokenId",
          "type": "uint256"
        }
      ],
      "name": "exists",
      "outputs": [
        {
          "name": "",
          "type": "bool"
        }
      ],
      "payable": false,
      "stateMutability": "view",
      "type": "function"
    },
    {
      "constant": true,
      "inputs": [
        {
          "name": "_index",
          "type": "uint256"
        }
      ],
      "name": "tokenByIndex",
      "outputs": [
        {
          "name": "",
          "type": "uint256"
        }
      ],
      "payable": false,
      "stateMutability": "view",
      "type": "function"
    },
    {
      "constant": true,
      "inputs": [
        {
          "name": "_tokenId",
          "type": "uint256"
        }
      ],
      "name": "ownerOf",
      "outputs": [
        {
          "name": "",
          "type": "address"
        }
      ],
      "payable": false,
      "stateMutability": "view",
      "type": "function"
    },
    {
      "constant": true,
      "inputs": [
        {
          "name": "_owner",
          "type": "address"
        }
      ],
      "name": "balanceOf",
      "outputs": [
        {
          "name": "",
          "type": "uint256"
        }
      ],
      "payable": false,
      "stateMutability": "view",
      "type": "function"
    },
    {
      "constant": true,
      "inputs": [],
      "name": "symbol",
      "outputs": [
        {
          "name": "",
          "type": "string"
        }
      ],
      "payable": false,
      "stateMutability": "view",
      "type": "function"
    },
    {
      "constant": false,
      "inputs": [
        {
          "name": "_to",
          "type": "address"
        },
        {
          "name": "_approved",
          "type": "bool"
        }
      ],
      "name": "setApprovalForAll",
      "outputs": [],
      "payable": false,
      "stateMutability": "nonpayable",
      "type": "function"
    },
    {
      "constant": false,
      "inputs": [
        {
          "name": "_from",
          "type": "address"
        },
        {
          "name": "_to",
          "type": "address"
        },
        {
          "name": "_tokenId",
          "type": "uint256"
        },
        {
          "name": "_data",
          "type": "bytes"
        }
      ],
      "name": "safeTransferFrom",
      "outputs": [],
      "payable": false,
      "stateMutability": "nonpayable",
      "type": "function"
    },
    {
      "constant": true,
      "inputs": [
        {
          "name": "_tokenId",
          "type": "uint256"
        }
      ],
      "name": "tokenURI",
      "outputs": [
        {
          "name": "",
          "type": "string"
        }
      ],
      "payable": false,
      "stateMutability": "view",
      "type": "function"
    },
    {
      "constant": true,
      "inputs": [
        {
          "name": "_owner",
          "type": "address"
        },
        {
          "name": "_operator",
          "type": "address"
        }
      ],
      "name": "isApprovedForAll",
      "outputs": [
        {
          "name": "",
          "type": "bool"
        }
      ],
      "payable": false,
      "stateMutability": "view",
      "type": "function"
    },
    {
      "inputs": [
        {
          "name": "_name",
          "type": "string"
        },
        {
          "name": "_symbol",
          "type": "string"
        }
      ],
      "payable": false,
      "stateMutability": "nonpayable",
      "type": "constructor"
    },
    {
      "anonymous": false,
      "inputs": [
        {
          "indexed": true,
          "name": "_from",
          "type": "address"
        },
        {
          "indexed": true,
          "name": "_to",
          "type": "address"
        },
        {
          "indexed": true,
          "name": "_tokenId",
          "type": "uint256"
        }
      ],
      "name": "Transfer",
      "type": "event"
    },
    {
      "anonymous": false,
      "inputs": [
        {
          "indexed": true,
          "name": "_owner",
          "type": "address"
        },
        {
          "indexed": true,
          "name": "_approved",
          "type": "address"
        },
        {
          "indexed": true,
          "name": "_tokenId",
          "type": "uint256"
        }
      ],
      "name": "Approval",
      "type": "event"
    },
    {
      "anonymous": false,
      "inputs": [
        {
          "indexed": true,
          "name": "_owner",
          "type": "address"
        },
        {
          "indexed": true,
          "name": "_operator",
          "type": "address"
        },
        {
          "indexed": false,
          "name": "_approved",
          "type": "bool"
        }
      ],
      "name": "ApprovalForAll",
      "type": "event"
    },
    {
      "constant": false,
      "inputs": [
        {
          "name": "_to",
          "type": "address"
        },
        {
          "name": "_tokenId",
          "type": "uint256"
        },
        {
          "name": "_tokenURI",
          "type": "string"
        }
      ],
      "name": "mintUniqueTokenTo",
      "outputs": [],
      "payable": false,
      "stateMutability": "nonpayable",
      "type": "function"
    }
  ],
  "bytecode": "0x60806040523480156200001157600080fd5b506040516200141138038062001411833981016040528051602082015190820191018181620000697f01ffc9a7000000000000000000000000000000000000000000000000000000006401000000006200016f810204565b6200009d7f80ac58cd000000000000000000000000000000000000000000000000000000006401000000006200016f810204565b620000d17f4f558e79000000000000000000000000000000000000000000000000000000006401000000006200016f810204565b8151620000e6906005906020850190620001dc565b508051620000fc906006906020840190620001dc565b50620001317f780e9d63000000000000000000000000000000000000000000000000000000006401000000006200016f810204565b620001657f5b5e139f000000000000000000000000000000000000000000000000000000006401000000006200016f810204565b5050505062000281565b7fffffffff0000000000000000000000000000000000000000000000000000000080821614156200019f57600080fd5b7fffffffff00000000000000000000000000000000000000000000000000000000166000908152602081905260409020805460ff19166001179055565b828054600181600116156101000203166002900490600052602060002090601f016020900481019282601f106200021f57805160ff19168380011785556200024f565b828001600101855582156200024f579182015b828111156200024f57825182559160200191906001019062000232565b506200025d92915062000261565b5090565b6200027e91905b808211156200025d576000815560010162000268565b90565b61118080620002916000396000f3006080604052600436106101065763ffffffff7c010000000000000000000000000000000000000000000000000000000060003504166301ffc9a7811461010b57806306fdde0314610156578063081812fc146101e0578063095ea7b31461021457806318160ddd1461023a57806319fa8f501461026157806323b872dd146102a857806326dd860a146102d25780632f745c591461033b57806342842e0e1461035f5780634f558e79146103895780634f6ccce7146103a15780636352211e146103b957806370a08231146103d157806395d89b41146103f2578063a22cb46514610407578063b88d4fde1461042d578063c87b56dd1461049c578063e985e9c5146104b4575b600080fd5b34801561011757600080fd5b506101427bffffffffffffffffffffffffffffffffffffffffffffffffffffffff19600435166104db565b604080519115158252519081900360200190f35b34801561016257600080fd5b5061016b61050f565b6040805160208082528351818301528351919283929083019185019080838360005b838110156101a557818101518382015260200161018d565b50505050905090810190601f1680156101d25780820380516001836020036101000a031916815260200191505b509250505060405180910390f35b3480156101ec57600080fd5b506101f86004356105a6565b60408051600160a060020a039092168252519081900360200190f35b34801561022057600080fd5b50610238600160a060020a03600435166024356105c1565b005b34801561024657600080fd5b5061024f610677565b60408051918252519081900360200190f35b34801561026d57600080fd5b5061027661067d565b604080517bffffffffffffffffffffffffffffffffffffffffffffffffffffffff199092168252519081900360200190f35b3480156102b457600080fd5b50610238600160a060020a03600435811690602435166044356106a1565b3480156102de57600080fd5b50604080516020600460443581810135601f8101849004840285018401909552848452610238948235600160a060020a03169460248035953695946064949201919081908401838280828437509497506107469650505050505050565b34801561034757600080fd5b5061024f600160a060020a036004351660243561075f565b34801561036b57600080fd5b50610238600160a060020a03600435811690602435166044356107ac565b34801561039557600080fd5b506101426004356107e4565b3480156103ad57600080fd5b5061024f600435610801565b3480156103c557600080fd5b506101f8600435610836565b3480156103dd57600080fd5b5061024f600160a060020a0360043516610860565b3480156103fe57600080fd5b5061016b610893565b34801561041357600080fd5b50610238600160a060020a036004351660243515156108f4565b34801561043957600080fd5b50604080516020601f60643560048181013592830184900484028501840190955281845261023894600160a060020a0381358116956024803590921695604435953695608494019181908401838280828437509497506109789650505050505050565b3480156104a857600080fd5b5061016b6004356109b7565b3480156104c057600080fd5b50610142600160a060020a0360043581169060243516610a6c565b7bffffffffffffffffffffffffffffffffffffffffffffffffffffffff191660009081526020819052604090205460ff1690565b60058054604080516020601f600260001961010060018816150201909516949094049384018190048102820181019092528281526060939092909183018282801561059b5780601f106105705761010080835404028352916020019161059b565b820191906000526020600020905b81548152906001019060200180831161057e57829003601f168201915b505050505090505b90565b600090815260026020526040902054600160a060020a031690565b60006105cc82610836565b9050600160a060020a0383811690821614156105e757600080fd5b33600160a060020a038216148061060357506106038133610a6c565b151561060e57600080fd5b600082815260026020526040808220805473ffffffffffffffffffffffffffffffffffffffff1916600160a060020a0387811691821790925591518593918516917f8c5be1e5ebec7d5bd14f71427d1e84f3dd0314c0f7b2291e5b200ac8c7c3b92591a4505050565b60095490565b7f01ffc9a70000000000000000000000000000000000000000000000000000000081565b806106ac3382610a9a565b15156106b757600080fd5b600160a060020a03841615156106cc57600080fd5b600160a060020a03831615156106e157600080fd5b6106eb8483610af9565b6106f58483610b6a565b6106ff8383610ca3565b8183600160a060020a031685600160a060020a03167fddf252ad1be2c89b69c2b068fc378daa952ba7f163c4a11628f55a4df523b3ef60405160405180910390a450505050565b6107508383610cec565b61075a8282610d3b565b505050565b600061076a83610860565b821061077557600080fd5b600160a060020a038316600090815260076020526040902080548390811061079957fe5b9060005260206000200154905092915050565b806107b73382610a9a565b15156107c257600080fd5b6107de8484846020604051908101604052806000815250610978565b50505050565b600090815260016020526040902054600160a060020a0316151590565b600061080b610677565b821061081657600080fd5b600980548390811061082457fe5b90600052602060002001549050919050565b600081815260016020526040812054600160a060020a031680151561085a57600080fd5b92915050565b6000600160a060020a038216151561087757600080fd5b50600160a060020a031660009081526003602052604090205490565b60068054604080516020601f600260001961010060018816150201909516949094049384018190048102820181019092528281526060939092909183018282801561059b5780601f106105705761010080835404028352916020019161059b565b600160a060020a03821633141561090a57600080fd5b336000818152600460209081526040808320600160a060020a03871680855290835292819020805460ff1916861515908117909155815190815290519293927f17307eab39ab6107e8899845ad3d59bd9653f200f220920489ca2b5937696c31929181900390910190a35050565b816109833382610a9a565b151561098e57600080fd5b6109998585856106a1565b6109a585858585610d6e565b15156109b057600080fd5b5050505050565b60606109c2826107e4565b15156109cd57600080fd5b6000828152600b602090815260409182902080548351601f600260001961010060018616150201909316929092049182018490048402810184019094528084529091830182828015610a605780601f10610a3557610100808354040283529160200191610a60565b820191906000526020600020905b815481529060010190602001808311610a4357829003601f168201915b50505050509050919050565b600160a060020a03918216600090815260046020908152604080832093909416825291909152205460ff1690565b600080610aa683610836565b905080600160a060020a031684600160a060020a03161480610ae1575083600160a060020a0316610ad6846105a6565b600160a060020a0316145b80610af15750610af18185610a6c565b949350505050565b81600160a060020a0316610b0c82610836565b600160a060020a031614610b1f57600080fd5b600081815260026020526040902054600160a060020a031615610b66576000818152600260205260409020805473ffffffffffffffffffffffffffffffffffffffff191690555b5050565b6000806000610b798585610ef0565b600084815260086020908152604080832054600160a060020a0389168452600790925290912054909350610bb490600163ffffffff610f8616565b600160a060020a038616600090815260076020526040902080549193509083908110610bdc57fe5b90600052602060002001549050806007600087600160a060020a0316600160a060020a0316815260200190815260200160002084815481101515610c1c57fe5b6000918252602080832090910192909255600160a060020a0387168152600790915260408120805484908110610c4e57fe5b6000918252602080832090910192909255600160a060020a0387168152600790915260409020805490610c85906000198301611098565b50600093845260086020526040808520859055908452909220555050565b6000610caf8383610f98565b50600160a060020a039091166000908152600760209081526040808320805460018101825590845282842081018590559383526008909152902055565b610cf68282611028565b600980546000838152600a60205260408120829055600182018355919091527f6e1540171b6c0c960b71a7020d9f60077f6af931a8bbf590da0223dacf75c7af015550565b610d44826107e4565b1515610d4f57600080fd5b6000828152600b60209081526040909120825161075a928401906110bc565b600080610d8385600160a060020a0316611083565b1515610d925760019150610ee7565b6040517f150b7a020000000000000000000000000000000000000000000000000000000081523360048201818152600160a060020a03898116602485015260448401889052608060648501908152875160848601528751918a169463150b7a0294938c938b938b93909160a490910190602085019080838360005b83811015610e25578181015183820152602001610e0d565b50505050905090810190601f168015610e525780820380516001836020036101000a031916815260200191505b5095505050505050602060405180830381600087803b158015610e7457600080fd5b505af1158015610e88573d6000803e3d6000fd5b505050506040513d6020811015610e9e57600080fd5b50517bffffffffffffffffffffffffffffffffffffffffffffffffffffffff1981167f150b7a020000000000000000000000000000000000000000000000000000000014925090505b50949350505050565b81600160a060020a0316610f0382610836565b600160a060020a031614610f1657600080fd5b600160a060020a038216600090815260036020526040902054610f4090600163ffffffff610f8616565b600160a060020a03909216600090815260036020908152604080832094909455918152600190915220805473ffffffffffffffffffffffffffffffffffffffff19169055565b600082821115610f9257fe5b50900390565b600081815260016020526040902054600160a060020a031615610fba57600080fd5b6000818152600160208181526040808420805473ffffffffffffffffffffffffffffffffffffffff1916600160a060020a03881690811790915584526003909152909120546110089161108b565b600160a060020a0390921660009081526003602052604090209190915550565b600160a060020a038216151561103d57600080fd5b6110478282610ca3565b6040518190600160a060020a038416906000907fddf252ad1be2c89b69c2b068fc378daa952ba7f163c4a11628f55a4df523b3ef908290a45050565b6000903b1190565b8181018281101561085a57fe5b81548183558181111561075a5760008381526020902061075a91810190830161113a565b828054600181600116156101000203166002900490600052602060002090601f016020900481019282601f106110fd57805160ff191683800117855561112a565b8280016001018555821561112a579182015b8281111561112a57825182559160200191906001019061110f565b5061113692915061113a565b5090565b6105a391905b8082111561113657600081556001016111405600a165627a7a72305820cb0c7297a3289b4a1e895504df3c69ce9c83f62959ecae657778a397ff8ec4ba0029",
  "source": "pragma solidity ^0.4.23;\r\n\r\nimport \"openzeppelin-solidity/contracts/token/ERC721/ERC721Token.sol\";\r\n\r\ncontract LaunchERC721 is ERC721Token {\r\n    constructor (string _name, string _symbol) public\r\n        ERC721Token(_name, _symbol)\r\n    {\r\n    }\r\n\r\n    /**\r\n    * Custom accessor to mint a unique token\r\n    */\r\n    function mintUniqueTokenTo(\r\n        address _to,\r\n        uint256 _tokenId,\r\n        string  _tokenURI\r\n    ) public\r\n    {\r\n        super._mint(_to, _tokenId);\r\n        super._setTokenURI(_tokenId, _tokenURI);\r\n    }\r\n}",
  "sourcePath": "C:\\users\\aparmenter\\ConsensysFinalProj\\Fproj\\contracts\\LaunchERC721.sol",
  "compiler": {
    "name": "solc",
    "version": "0.4.24+commit.e67f0147.Emscripten.clang"
  },
  "schemaVersion": "2.0.1",
  "updatedAt": "2018-08-27T02:24:24.009Z"
}